{
  "_format": "hh-sol-artifact-1",
  "contractName": "Bank",
  "sourceName": "contracts/Bank.sol",
  "abi": [
    {
      "inputs": [],
      "stateMutability": "nonpayable",
      "type": "constructor"
    },
    {
      "anonymous": false,
      "inputs": [
        {
          "indexed": false,
          "internalType": "uint256",
          "name": "moneySent",
          "type": "uint256"
        },
        {
          "indexed": false,
          "internalType": "uint256",
          "name": "newBalance",
          "type": "uint256"
        },
        {
          "indexed": false,
          "internalType": "string",
          "name": "message",
          "type": "string"
        }
      ],
      "name": "MoneySent",
      "type": "event"
    },
    {
      "inputs": [],
      "name": "bankBalance",
      "outputs": [
        {
          "internalType": "uint256",
          "name": "",
          "type": "uint256"
        }
      ],
      "stateMutability": "view",
      "type": "function"
    },
    {
      "inputs": [],
      "name": "bankName",
      "outputs": [
        {
          "internalType": "string",
          "name": "",
          "type": "string"
        }
      ],
      "stateMutability": "view",
      "type": "function"
    },
    {
      "inputs": [],
      "name": "bankOwner",
      "outputs": [
        {
          "internalType": "address",
          "name": "",
          "type": "address"
        }
      ],
      "stateMutability": "view",
      "type": "function"
    },
    {
      "inputs": [
        {
          "internalType": "address",
          "name": "",
          "type": "address"
        }
      ],
      "name": "customerBalance",
      "outputs": [
        {
          "internalType": "uint256",
          "name": "",
          "type": "uint256"
        }
      ],
      "stateMutability": "view",
      "type": "function"
    },
    {
      "inputs": [],
      "name": "depositMoney",
      "outputs": [],
      "stateMutability": "payable",
      "type": "function"
    },
    {
      "inputs": [],
      "name": "getBankBalance",
      "outputs": [
        {
          "internalType": "uint256",
          "name": "",
          "type": "uint256"
        }
      ],
      "stateMutability": "view",
      "type": "function"
    },
    {
      "inputs": [],
      "name": "getCustomerBalance",
      "outputs": [
        {
          "internalType": "uint256",
          "name": "",
          "type": "uint256"
        }
      ],
      "stateMutability": "view",
      "type": "function"
    },
    {
      "inputs": [
        {
          "internalType": "string",
          "name": "_bankName",
          "type": "string"
        }
      ],
      "name": "setBankName",
      "outputs": [],
      "stateMutability": "nonpayable",
      "type": "function"
    },
    {
      "inputs": [
        {
          "internalType": "address payable",
          "name": "_to",
          "type": "address"
        },
        {
          "internalType": "uint256",
          "name": "_moneyToSent",
          "type": "uint256"
        }
      ],
      "name": "transferMoney",
      "outputs": [],
      "stateMutability": "payable",
      "type": "function"
    },
    {
      "inputs": [
        {
          "internalType": "address payable",
          "name": "_to",
          "type": "address"
        },
        {
          "internalType": "uint256",
          "name": "moneyToWithDraw",
          "type": "uint256"
        }
      ],
      "name": "withDrawMoney",
      "outputs": [],
      "stateMutability": "payable",
      "type": "function"
    }
  ],
  "bytecode": "0x608060405234801561001057600080fd5b50336000806101000a81548173ffffffffffffffffffffffffffffffffffffffff021916908373ffffffffffffffffffffffffffffffffffffffff160217905550611153806100606000396000f3fe6080604052600436106100915760003560e01c80637b83b50b116100595780637b83b50b1461015c578063a853409a14610187578063b39d7b7c146101b2578063e147aaa7146101ce578063fee666ad146101f957610091565b806316c05aa21461009657806327d35801146100a057806328657aa5146100cb57806337ebe47b146100f65780637014269014610133575b600080fd5b61009e610215565b005b3480156100ac57600080fd5b506100b56102c9565b6040516100c29190610c2e565b60405180910390f35b3480156100d757600080fd5b506100e0610357565b6040516100ed9190610cf0565b60405180910390f35b34801561010257600080fd5b5061011d60048036038101906101189190610a0c565b61035d565b60405161012a9190610cf0565b60405180910390f35b34801561013f57600080fd5b5061015a60048036038101906101559190610a71565b610375565b005b34801561016857600080fd5b5061017161041d565b60405161017e9190610cf0565b60405180910390f35b34801561019357600080fd5b5061019c6104b4565b6040516101a99190610cf0565b60405180910390f35b6101cc60048036038101906101c79190610a35565b6104fb565b005b3480156101da57600080fd5b506101e361069d565b6040516101f09190610c13565b60405180910390f35b610213600480360381019061020e9190610a35565b6106c1565b005b60003411610258576040517f08c379a000000000000000000000000000000000000000000000000000000000815260040161024f90610cb0565b60405180910390fd5b34600360003373ffffffffffffffffffffffffffffffffffffffff1673ffffffffffffffffffffffffffffffffffffffff16815260200190815260200160002060008282546102a79190610dc4565b9250508190555034600160008282546102c09190610dc4565b92505081905550565b600280546102d690610ede565b80601f016020809104026020016040519081016040528092919081815260200182805461030290610ede565b801561034f5780601f106103245761010080835404028352916020019161034f565b820191906000526020600020905b81548152906001019060200180831161033257829003601f168201915b505050505081565b60015481565b60036020528060005260406000206000915090505481565b60008054906101000a900473ffffffffffffffffffffffffffffffffffffffff1673ffffffffffffffffffffffffffffffffffffffff163373ffffffffffffffffffffffffffffffffffffffff1614610403576040517f08c379a00000000000000000000000000000000000000000000000000000000081526004016103fa90610c70565b60405180910390fd5b80600290805190602001906104199291906108c2565b5050565b60008060009054906101000a900473ffffffffffffffffffffffffffffffffffffffff1673ffffffffffffffffffffffffffffffffffffffff163373ffffffffffffffffffffffffffffffffffffffff16146104ae576040517f08c379a00000000000000000000000000000000000000000000000000000000081526004016104a590610c70565b60405180910390fd5b47905090565b6000600360003373ffffffffffffffffffffffffffffffffffffffff1673ffffffffffffffffffffffffffffffffffffffff16815260200190815260200160002054905090565b600360008373ffffffffffffffffffffffffffffffffffffffff1673ffffffffffffffffffffffffffffffffffffffff1681526020019081526020016000205481111561057d576040517f08c379a000000000000000000000000000000000000000000000000000000000815260040161057490610c90565b60405180910390fd5b80600360008473ffffffffffffffffffffffffffffffffffffffff1673ffffffffffffffffffffffffffffffffffffffff16815260200190815260200160002060008282546105cc9190610e1a565b9250508190555080600160008282546105e59190610e1a565b9250508190555060008273ffffffffffffffffffffffffffffffffffffffff168260405161061290610bfe565b60006040518083038185875af1925050503d806000811461064f576040519150601f19603f3d011682016040523d82523d6000602084013e610654565b606091505b5050905080610698576040517f08c379a000000000000000000000000000000000000000000000000000000000815260040161068f90610cd0565b60405180910390fd5b505050565b60008054906101000a900473ffffffffffffffffffffffffffffffffffffffff1681565b600360003373ffffffffffffffffffffffffffffffffffffffff1673ffffffffffffffffffffffffffffffffffffffff16815260200190815260200160002054341115610743576040517f08c379a000000000000000000000000000000000000000000000000000000000815260040161073a90610c90565b60405180910390fd5b80600360003373ffffffffffffffffffffffffffffffffffffffff1673ffffffffffffffffffffffffffffffffffffffff16815260200190815260200160002060008282546107929190610e1a565b9250508190555060008273ffffffffffffffffffffffffffffffffffffffff16826040516107bf90610bfe565b60006040518083038185875af1925050503d80600081146107fc576040519150601f19603f3d011682016040523d82523d6000602084013e610801565b606091505b5050905080610845576040517f08c379a000000000000000000000000000000000000000000000000000000000815260040161083c90610c50565b60405180910390fd5b7f9ae20c452328b77aedb7928e90a4efb033f3b2fa61dcdbe80791450411f8e84782600360003373ffffffffffffffffffffffffffffffffffffffff1673ffffffffffffffffffffffffffffffffffffffff168152602001908152602001600020546040516108b5929190610d0b565b60405180910390a1505050565b8280546108ce90610ede565b90600052602060002090601f0160209004810192826108f05760008555610937565b82601f1061090957805160ff1916838001178555610937565b82800160010185558215610937579182015b8281111561093657825182559160200191906001019061091b565b5b5090506109449190610948565b5090565b5b80821115610961576000816000905550600101610949565b5090565b600061097861097384610d6c565b610d47565b90508281526020810184848401111561099057600080fd5b61099b848285610e9c565b509392505050565b6000813590506109b2816110d8565b92915050565b6000813590506109c7816110ef565b92915050565b600082601f8301126109de57600080fd5b81356109ee848260208601610965565b91505092915050565b600081359050610a0681611106565b92915050565b600060208284031215610a1e57600080fd5b6000610a2c848285016109a3565b91505092915050565b60008060408385031215610a4857600080fd5b6000610a56858286016109b8565b9250506020610a67858286016109f7565b9150509250929050565b600060208284031215610a8357600080fd5b600082013567ffffffffffffffff811115610a9d57600080fd5b610aa9848285016109cd565b91505092915050565b610abb81610e4e565b82525050565b6000610acc82610d9d565b610ad68185610db3565b9350610ae6818560208601610eab565b610aef81610fce565b840191505092915050565b6000610b07601483610db3565b9150610b1282610fdf565b602082019050919050565b6000610b2a600a83610db3565b9150610b3582611008565b602082019050919050565b6000610b4d601483610db3565b9150610b5882611031565b602082019050919050565b6000610b70601083610db3565b9150610b7b8261105a565b602082019050919050565b6000610b93600f83610db3565b9150610b9e82611083565b602082019050919050565b6000610bb6600083610da8565b9150610bc1826110ac565b600082019050919050565b6000610bd9601083610db3565b9150610be4826110af565b602082019050919050565b610bf881610e92565b82525050565b6000610c0982610ba9565b9150819050919050565b6000602082019050610c286000830184610ab2565b92915050565b60006020820190508181036000830152610c488184610ac1565b905092915050565b60006020820190508181036000830152610c6981610afa565b9050919050565b60006020820190508181036000830152610c8981610b40565b9050919050565b60006020820190508181036000830152610ca981610b63565b9050919050565b60006020820190508181036000830152610cc981610b86565b9050919050565b60006020820190508181036000830152610ce981610bcc565b9050919050565b6000602082019050610d056000830184610bef565b92915050565b6000606082019050610d206000830185610bef565b610d2d6020830184610bef565b8181036040830152610d3e81610b1d565b90509392505050565b6000610d51610d62565b9050610d5d8282610f10565b919050565b6000604051905090565b600067ffffffffffffffff821115610d8757610d86610f9f565b5b610d9082610fce565b9050602081019050919050565b600081519050919050565b600081905092915050565b600082825260208201905092915050565b6000610dcf82610e92565b9150610dda83610e92565b9250827fffffffffffffffffffffffffffffffffffffffffffffffffffffffffffffffff03821115610e0f57610e0e610f41565b5b828201905092915050565b6000610e2582610e92565b9150610e3083610e92565b925082821015610e4357610e42610f41565b5b828203905092915050565b6000610e5982610e72565b9050919050565b6000610e6b82610e72565b9050919050565b600073ffffffffffffffffffffffffffffffffffffffff82169050919050565b6000819050919050565b82818337600083830152505050565b60005b83811015610ec9578082015181840152602081019050610eae565b83811115610ed8576000848401525b50505050565b60006002820490506001821680610ef657607f821691505b60208210811415610f0a57610f09610f70565b5b50919050565b610f1982610fce565b810181811067ffffffffffffffff82111715610f3857610f37610f9f565b5b80604052505050565b7f4e487b7100000000000000000000000000000000000000000000000000000000600052601160045260246000fd5b7f4e487b7100000000000000000000000000000000000000000000000000000000600052602260045260246000fd5b7f4e487b7100000000000000000000000000000000000000000000000000000000600052604160045260246000fd5b6000601f19601f8301169050919050565b7f4661696c656420746f2073656e64204574686572000000000000000000000000600082015250565b7f4d6f6e65792073656e7400000000000000000000000000000000000000000000600082015250565b7f796f7572206e6f7420746865206d616e61676572000000000000000000000000600082015250565b7f6e6f7420656e6f756768206d6f6e657900000000000000000000000000000000600082015250565b7f63616e6e6f7420616464207a65726f0000000000000000000000000000000000600082015250565b50565b7f5472616e73666572206661696c65642e00000000000000000000000000000000600082015250565b6110e181610e4e565b81146110ec57600080fd5b50565b6110f881610e60565b811461110357600080fd5b50565b61110f81610e92565b811461111a57600080fd5b5056fea2646970667358221220e967ee49731d8b17f80d7dd494da64e227b53ae0bac7200403f9bd81cd3d05cd64736f6c63430008030033",
  "linkReferences": {},
  "deployedLinkReferences": {}
}